:1000000000000000C5080000790700007907000023
:1000100079070000790700007907000079070000E0
:1000200079070000790700007907000079070000D0
:1000300079070000790700007907000079070000C0
:1000400079070000790700007907000079070000B0
:1000500079070000790700007907000079070000A0
:100060007907000079070000790700007907000090
:100070007907000079070000790700007907000080
:1000800000480047C5080000000000000000000014
:100090000000000000000000000000000000000060
:1000A0000000000000000000000000000000000050
:1000B0000000000000000000000000000000000040
:1000C0000000000000000000000000000000000030
:1000D0000000000000000000000000000000000020
:1000E0000000000000000000000000000000000010
:1000F0000000000000000000000000000000000000
:10010000FD070000C107000039080000393B03006B
:10011000A5390300C7390300E9390300513A030048
:100120001B3A0300893A0300F93D0300A5100000C3
:10013000A5100000A5100000A5100000A5100000EB
:10014000A5100000A5100000A5100000A5100000DB
:10015000A5100000A5100000A5100000A5100000CB
:10016000A5100000A5100000A5100000A5100000BB
:10017000A51000004373020083770200A510000061
:10018000A5100000A3730200CD8002004978020090
:10019000F9770200C1770200A9770200A377020075
:1001A0000D77020071740200F5830200B976020037
:1001B0008F73020099730200D17D0200D77602008E
:1001C000777F0200F37B02007973020087730200DD
:1001D0002D900200AF770200EB8302004D77020002
:1001E0002D850200917802003F7C0200A5100000DE
:1001F000A5100000CF7B0200317B0200C37B020010
:10020000E5800200A5100000A5100000A510000068
:10021000A5100000A5100000B90A0000390B00006D
:100220008D0B0000A10C000071110000A510000052
:10023000A5100000A5100000A5100000A5100000EA
:10024000A5100000A5100000A5100000A5100000DA
:10025000A5100000A5100000A5100000A5100000CA
:10026000A5100000A5100000A5100000A5100000BA
:10027000A5100000A5100000091600005D17000081
:10028000491C0000392000009321000001220000D9
:10029000A52200001D23000005340000D53A00000F
:1002A000153B00004D3E0000953E0000F13E000071
:1002B000A53F0000A5100000A5100000A51000003B
:1002C000D9460000294900009D490000A510000002
:1002D000C1490000A5100000A5100000A5100000F5
:1002E000AD4A0000BD4B0000194C00002F4D00002E
:1002F0008D4D0000BD4D0000C54D0000CD4D0000EE
:10030000614B0000EF5900007D5F0000B36000000A
:10031000FB6000005765000021670000DB670000FC
:10032000256800002B680000F56900001B6A0000CA
:10033000A51000008B6A00005B6C0000616C00007F
:10034000C16F000035700000A5100000A51000006E
:10035000E9720000157300007B860000C58600006E
:10036000C9880000EF880000D38900002D8C0000B0
:10037000478C0000D58D0000F7900000259200000A
:10038000F3930000119400000D950000BD9700004C
:10039000D9970000E998000079A00000B3AA0000F6
:1003A000ADAC0000B3AC00003DAE0000CDAE00002F
:1003B000E1AE0000E7AE000001B000002DB000008B
:1003C000A5B0000001B1000045B10000ADB10000D2
:1003D000BBB1000063B3000069B300006FB300005D
:1003E0009DB30000EDB100001DB20000A3B40000F9
:1003F000A9B400006FB60000D3B60000EDB600004F
:100400002DB7000095B700009BB7000067B800004B
:100410006DB8000079B800001DBD000073BD00007C
:100420009DBD0000D9BF00006DC200006FC200007A
:100430008FC4000039CB000041CB0000E9CC0000A4
:10044000B5CE00004FD7000005D8000057D80000F7
:1004500041DC00009DE9000085F00000E7F10000AC
:1004600041F3000021160100311901009D25010012
:1004700009390100B13901001F3E010003B5000038
:10048000ED370100BF3F01001B400100794701002B
:1004900043830100C7840100E1840100A1890100B8
:1004A00013920100159601006B970100F19D010068
:1004B00005B10100FDC4010081CE010061DE010033
:1004C00085DE0100ADDE010095DF0100E9DF0100FE
:1004D00019E1010007E20100A51000005DE601003E
:1004E00095E6010007EA0100110E0200FB1102006F
:1004F0003DF101004DF3010021F7010039F8010041
:10050000B1FF0100B1030200890B02004713020092
:10051000D1140200A5100000A5100000A5100000D5
:10052000A510000021150200291502005515020032
:10053000A51000005D16020097160200C916020001
:100540000D180200C918020003190200BD190200AB
:10055000A31A0200451B0200C32B02006B2D0200F0
:10056000B32D02003D2E020061310200C9320200AB
:100570000134020015370200DD370200313A020073
:10058000793A0200633B0200A13C0200713D020087
:10059000353E0200FF3E02003D3F0200C13F020027
:1005A00009410200F14102000D440200A144020091
:1005B000A5100000A5100000A5100000B94B020016
:1005C000A5100000A5100000A5100000114C0200AD
:1005D000BB4C0200374D02007F4F02008F500200DB
:1005E000DD500200ED500200F550020009510200FA
:1005F000B552020049550200B5570200E757020004
:1006000011580200895A0200B15B0200E95C020045
:10061000995F0200BD5F0200ED6102006B620200A3
:10062000A163020079640200A5100000A51000007B
:10063000A5100000A5100000E9370300A510000078
:10064000553E0300993E0300F93E0300573F030067
:1006500061400300F14103001544030059470300C2
:10066000AD48030055490300C94B0300734C030018
:1006700059550300AF550300E95503000D5703001A
:1006800015570300D1590300396603000F6B0300AF
:10069000A5100000A5100000A5100000A510000086
:1006A000A5100000A5100000A5100000A510000076
:1006B000A5100000756E0300D36E0300A5100000A6
:1006C000A5100000A5100000A5100000010000000A
:1006D00000020000FF0300005000000001000000C5
:1006E000010000000A0708000000000000000000F0
:1006F00000000000000000000000000000000000FA
:1007000000000000000000000000000000000000E9
:1007100000000000000000000000000000000000D9
:1007200000000000000000000000000000000000C9
:100730000000000000000000007D0000000000003C
:1007400000000000000000000000000000000000A9
:100750000000000000000000000000000000000099
:100760000000000000000000000000000000000089
:1007700000000000000000006846836941692030E5
:100780000BB5203803695A4651460EB44A464146D5
:1007900006B4C36882684168FEB40368C269EFF3B7
:1007A00003810EB48269EFF3058106B40348016842
:1007B0000029FED06846884714B000BD60080000DC
:1007C0000A49084202D062B6C943084008490842B3
:1007D00002D061B6C943084006490840002803D04A
:1007E00005490A6802430A60704700000000008063
:1007F00000000040FFFF000000E100E00A4908425D
:1008000002D072B6C94308400849084202D071B606
:10081000C943084006490840002804D005490A6831
:10082000C04302400A6070470000008000000040A2
:10083000FFFF000080E100E002490968902288582B
:10084000704700006C080000024909689C2288502B
:10085000704700006C080000DDBAADBB000000006E
:100860000000000000000000000000000000000088
:10087000000000000000000000000000024A1168B3
:100880001060081C7047000060080000024A1168F0
:100890001060081C704700006408000006490860EA
:1008A00006490868002100F099FE05480168002902
:1008B000FED08847FEE7000058080000F006000060
:1008C000640800005248534900220A500168524A05
:1008D0000A40524F0F403F4206D15046004202D0DC
:1008E0004046004229D1FEE7FC2141580A680F2307
:1008F00013400F2BF1D0012B01D00431F6E7083162
:10090000474B1340474CA34206D100F0B9F880464C
:1009100000F0C2F88146E9E7434CA342E6D10B1F41
:100920001B68424C23401824E3409C4600F0A8F882
:10093000824600F0B1F88346D8E73D492122425073
:10094000334A3C498958FF2319421CD051683A4B1D
:10095000194218D01168304B1940D36A02E012E0F6
:10096000A34210D0C046354B00E00CE03449895812
:10097000194208D03349895819409942FAD1324B6B
:1009800011691942FCD049463F4204D19823CB5803
:100990001024E34001E02D4BCB581C242340002BB6
:1009A00001D000F087F840462949086048462949A7
:1009B0000860504628490860604628490860284970
:1009C0000F60284D28490D6028482949002204C09D
:1009D0008142FCD8043DAD46009DEC431023DD412F
:1009E000AC4210D1240CA400224D2C606B461B1B82
:1009F0002148224D2860002C05D01D680560043375
:100A00000430043CF9DC81B001F0ABFCFEE70000EF
:100A10000000001814060000FFFF0000000000F0B6
:100A200000FF0F00002A0800000E0800000000FF71
:100A3000E001000004060000000038000002000091
:100A4000180600000C06000000100000080400005A
:100A50006C080000700800007408000078080000AE
:100A600068080000000007009CCE030098D803002F
:100A7000ACEE0300A4CE0300E0D80300A0CE030038
:100A800008680F2204310240052AF9D1014A1040BA
:100A9000F746000000F0FFFF08680F220431024013
:100AA000052AF9D180221042F6D0014A1040F746BB
:100AB00000F0FFFFFEE700000FB470B51C4DADF570
:100AC000027D2C786CB10CF0FDDF4FF47A73044694
:100AD000B0FBF3F203FB12436846164909F002DB50
:100AE000044600AAC4F50071101987AB0131869A3B
:100AF000819309F0EDDB0026241804E01DF80600C0
:100B000000F016FB0136A642F8DB00AB002CA8BFB4
:100B10001B1913F8013C2046A3F10A02534243EB90
:100B200002032B700DF5027DBDE8704004B07047E4
:100B300098D8030065B48300004870479CD8030030
:100B400003F0ECBB022970B506D1506800210A22DF
:100B500009F068DB064603E00B48FFF7ADFF00260F
:100B60000025612408E0204600F0E2FA0134E4B2F6
:100B70007B2C08BF61240135B542F4D10A20BDE8C1
:100B8000704000F0D5BA00BF957103002DE9F74F12
:100B900001228A40B2F5805F28BF4FF48052042AB8
:100BA00038BF04220192384AC31CD2F800B0002298
:100BB00023F00303144694461046344E22E0D1F845
:100BC00000A09A451DD301F10807019D07EB0A0813
:100BD000C5F10009C3EB080509EA0505BD4210D3BC
:100BE000C7EB0509B9F1070F01D8BD4209D1C3EB25
:100BF0000A075F4505D242462C4667B1BB46B4465C
:100C000008460E4671680029D9D130B9204B1A68C0
:100C100001321A6035E0B4460846121BD11A102979
:100C200009D90568E2186D1A08390560E150416874
:100C3000516042601A4603689B1A03D14368CCF89E
:100C400004300CE0072B05D8114B00201A68013244
:100C50001A6016E0C250A3F108020260C0180D49E4
:100C60000023026843600B68D3180B600A490A68C6
:100C700008320A60D218094B19688A4288BF1A6084
:100C80000830BDE8FE8F00BFE8E8030030E903004C
:100C9000E0E80300FCE80300DCD80300D8D8030038
:100CA000174B30B51A6850F8084CA0F10801121B18
:100CB0001A60144B1A68083A1A60134B02E08A4211
:100CC00003D213465A68002AF9D10519AA4205D160
:100CD000156852686419083440F8084C4A601A686C
:100CE00002F108041C198C4207D150F8080C1218A4
:100CF00008321A604A685A6000E05960002030BD2E
:100D0000FCE80300DCD8030030E90300C31C23F037
:100D100003031A1A8A4210B51AD80C18E41A24F0E0
:100D200003040F2C14D90C4A03F108001168611850
:100D300011600A4A083C11681C6061181160084A79
:100D400011680831116000225A60FFF7A9FF00E026
:100D50000024204610BD00BFE8E80300FCE80300C3
:100D6000DCD8030010B500213022044609F084D9F4
:100D70000C4B23600C4B63600C4BA3600C4BE3608B
:100D80000C4B23610C4B63610C4BA3610C4BE36177
:100D90000C4B23620C4B63620C4BA3620C4BE36263
:100DA00010BD00BF00000000F26E0300F46E0300EF
:100DB0009CCE03009CCE030094D8030098D8030077
:100DC000ACEE0300D8F4030000AF0400BAB0040096
:100DD0003946050070B51E4D8CB06846FFF7C2FF5E
:100DE0002978E9B90898099C241A06D0224609F006
:100DF00043D908982146FFF789FF21461548FFF798
:100E00005BFE154B00221A70144B012219682A70E0
:100E1000E1B10B78D3B1124B186809F045DE15E04B
:100E2000104E317891B90A980B9C241A06D02246AC
:100E300009F022D90A982146FFF768FF0A4821469F
:100E4000FFF73AFE00232B70012333700CB070BD06
:100E5000F8E80300ABB4830000E9030010070000CA
:100E6000ECE8030028E90300DDB48300014B1868B7
:100E7000704700BF9CCE03002DE9F04F9DB00EA837
:100E8000FFF770FFFFF7F2FF0E9B0F9A1399D21A2C
:100E9000129B119CC3EB01091599149B6F4ECB1A41
:100EA0001099DFF8F881C1EB040B93443268D8F84D
:100EB000001002F59052521A4A44D218DFF8E0A10D
:100EC000674C5A441218674F0D92DAF800502268A6
:100ED0006548AD183A680C93C5EB020CCDF82CC0F0
:100EE000FFF7EAFD0C9B09F57E71019303F57E7314
:100EF00007339B0A07310BF57E72890A073202938A
:100F00000523920A0091039359464B465748FFF731
:100F1000D3FD336820683968DDF82CC00190039355
:100F200000F57E7003F57E730CF57E7601F57E721A
:100F300007300733800A9B0A07320736920AB60A3F
:100F4000029004934A4863460096FFF7B5FD0D9959
:100F500005F57E7201F57E7307339B0A0732920A0C
:100F6000009329460D9B4348FFF7A6FD424B43489B
:100F70001968FFF7A1FD424B40461968414B0A68CA
:100F800057469A4203D04048FFF796FD23E01A9156
:100F90000B4604E016683B4D131DAE4203D11A46C2
:100FA0001BAB9A42F6D300681AABC1EB030CC61A0E
:100FB000851AC1EB020E8DE8011034481A92CDF863
:100FC00008C0CDF80CE0CDF810E005960696079520
:100FD0000895FFF771FD2E4D286800283BD0037857
:100FE000002B38D0B0F8068009F044DD2B6808F1FA
:100FF000FF385D89024608FB05F606F57E73073368
:10100000403505FB08F5002BBCBF06F5FE630E332B
:101010009B128DE8280005F57E730733002BBCBFBB
:1010200005F5FE630E339B12029341463346194881
:10103000FFF742FD23683A68991B9B185B1B03F579
:101040007E7001F57E720730800A07320090920AA6
:101050001148FFF731FD1DB0BDE8F08FD8D803006F
:10106000FCE80300E8E803000FB583001EB5830029
:101070005CB58300A0B58300E0E80300DAB5830027
:10108000F4E803004B415453F4B5830017B68300D2
:101090001007000094B68300C0B683002CE903005B
:1010A000DCD8030008B571460448FFF705FD40F69B
:1010B0004910BDE80840FFF7F1BB00BF14B783003B
:1010C00037B5124B1B68D3F820540378E3B101A95C
:1010D0000CF002DF019B044633B90EE0286821685A
:1010E00009F01ED818B1ED68002DF7D108E06B6843
:1010F000A8680199224698472046FFF7D1FD03E0F2
:101100000348FFF7D9FCF7E73EBD00BF1807000012
:1011100023B7830010B5D0F8204404E021680348C9
:10112000FFF7CAFCE468002CF8D110BD4CBC83006A
:1011300038B50E4B05461C68BCB10A2802D10D20FB
:10114000FFF7F6FFA36843B122699D54E3680132BB
:10115000B2FBF3F103FB11232361D4F81C0420B18B
:101160002946BDE838400CF0099F38BD180700003B
:10117000F8B5404B1C68256875B1631900261E77C9
:10118000A561A319187F0136FFF7D2FFAE42F8D14F
:101190000A20FFF7CDFF54E0D4F81C04002868D0E3
:1011A00002210CF0DBDE00F00F00012861D00521E8
:1011B000D4F81C040CF0D2DEC2075AD5D4F81C04B3
:1011C00029460CF0CBDE0D28074617D0082801D0A1
:1011D0007F280CD1A369002B4BD0013BA3610820D1
:1011E000FFF7A6FF2020FFF7A3FF08203DE00A2815
:1011F00005D01F2803D801232077A3610A271E4E9C
:101200003846FFF795FF32780AB10A2F31D1A56928
:101210000A2F04EB050312D00135042D1F7709D1E5
:1012200042B904F11C0015492A4608F0AFDF08B99D
:1012300001233370B5F5806FA56102D2F8BD00229D
:101240001A770D4E337843B9B5F5806FA56104D296
:1012500004F11C002946FFF733FF00233E20A36161
:1012600023603370FFF764FF2020BDE8F840FFF7EC
:101270005FBFF8BD180700004CE90300A8CE0300CB
:101280000020FFF775BF0000F8B5094B05460C4676
:10129000102000211E681746FFF778FCD6F820348E
:1012A000056044608760C360C6F82004F8BD00BFD5
:1012B00018070000024B4068196800F08FB900BFA2
:1012C000A4E903002DE9FF4703680446A3F11002D7
:1012D0000F2A04D804B0BDE8F0470CF0919B032B13
:1012E0000FD1444AC36C22F00102934209D1426CEF
:1012F00006339361436C4FF0FF321A6004B0BDE8CF
:10130000F0873D4E3D48F169FFF7D6FBA36C21689D
:101310000093636C22460193A36839480293E36803
:1013200000270393E36CFFF7C7FB656CFFF79EFD97
:10133000636C04F11001C3EB000AE36931480093C8
:10134000236A4FEA9A0A0193636AB9460293A36A31
:10135000B84603930EC9FFF7AFFBA36B04F12C0152
:101360000093E36B28480193236C02930EC9FFF7A7
:10137000A3FBEB682548009395E80E00FFF79CFB64
:10138000EB6905F11001009321480EC9FFF794FBAA
:1013900018E07A59D3070FD5FF2A0DD91D4B9A4271
:1013A00004D9A2F50003B3F5801F05D81A483946C1
:1013B000FFF782FB09F101090437B9F10F0F08F1BA
:1013C000010801D8D045E4D13368002143F480639B
:1013D00086E81800114B186800F000F90146104823
:1013E000FFF76AFB40F2873004B0BDE8F047FFF733
:1013F00055BA00BF41E1800004E90300C971030050
:10140000D67103000B7203003E7203006D7203007D
:101410008B720300F26E0300A9720300F006000055
:10142000B5720300FFF74EBF1E4B70B51968002858
:1014300014BF044602248C421B4B1C4D0ED9621A69
:101440001A601B4B1B48D3E90023121943F1000318
:10145000C0E900230C464FF0A06609E000221A60A4
:101460002B681E6A0E2ECCBF4FF0C8564FF0106688
:1014700028680CF079D92868436A03F4F033B3F58F
:10148000005F0D4B03D91A680021C2F840161B6893
:101490003443C3F84446D3F84436BDE870400CF0FA
:1014A000719900BFD406000060E90300F006000057
:1014B00058E9030050E9030000070000164B1748E5
:1014C0001A68F0B5D2F81436D2F81416144C8B42C0
:1014D00018BFD2F81436134AD4E9006711681360B4
:1014E000591AD0E90023521843F10003C0E9002340
:1014F0000D4B01251B680022E3FB01670B4B3243B8
:10150000196820398D40013D07EA0503C4E900232D
:1015100037FA01F0F0BD00BF0007000058E90300F2
:1015200068E9030024070000B0CE0300B4CE030036
:1015300010B51C4C20680CF017D92068436A03F4DE
:10154000F033B3F5005F184B03D91A680021C2F8D5
:1015500040161B68D3F844460CF014D9A20120D5DC
:10156000114B40221B68C3F80826D3F808360F4BEE
:101570001B6893B1FFF7A2FF0D4B0E49D3E900237F
:10158000D1E90001904271EB030434BFC0EB0200CB
:101590000020BDE81040FFF747BFBDE810400CF049
:1015A000299B10BDF00600000007000060E9030061
:1015B00050E9030058E90300064B07491A68096817
:1015C000A0FB0223CA40C1F1200113FA01F08018E8
:1015D000FFF72ABFD0060000B8CE0300F8B50446D6
:1015E0000E4611F057DE0022054640F62A0120463D
:1015F00012F068D9D0F894702946C0F8946020465B
:1016000012F070D93846F8BD2DE9F74F130A054698
:1016100088461646876801935FE0D5F8DC31384686
:1016200003F1040AD5F8C431B2449A4534BFD14617
:10163000994649460CF0D2DD0446002850D0D5F832
:10164000E421D5F8E0310169C2EB0902C918D31AC7
:101650000161838212E0D5F8C43138469A4534BF1F
:10166000D146994649460CF0B9DD28B9384621469D
:1016700001220CF087DD05E0CBF80000BAEB090A87
:101680008346E8D1236901221A7095F804219E70DF
:101690005A70019A181DDA70A28A2146131F04BFDE
:1016A00013462069002200E07346944681469E4618
:1016B00006E095F804A1E24409F801AB0CF1010C35
:1016C0001EF1FF3EF5D20968C018D2180029EBD1EF
:1016D000284621460F220FF0C9DB18F1FF389CD2B3
:1016E000BDE8FE8FF8B58B8A0446032B0D4601D862
:1016F00080682EE00869C278877806781202D219CD
:10170000771E4178042F22D8DFE807F00303031186
:101710001300043293421AD1022E18D1032303700E
:10172000294620460F22BDE8F8400FF09F9B204637
:1017300008E051B10023D4F8B811A4F81A22C4F873
:101740001C322046FFF760FF01E0A4F81A12A068DF
:1017500029460122BDE8F8400CF0149DF7B5044677
:101760000D460E690EF0EEDF074660B194F8FD31CC
:101770004BB132884FF6FC73920013403380AB8A32
:10178000063B9B00AB82AA8A7388083A9BB206F19B
:10179000080192B218072961AA821CD0D90704D582
:1017A000D4F854210132C4F854219A0704D5D4F84E
:1017B00058210132C4F85821580704D5D4F85C21C7
:1017C0000132C4F85C2119076ED5D4F860310133B9
:1017D000C4F8603168E0032A05D8D4F844310133F5
:1017E000C4F8443160E0022201A808F0BDDB296999
:1017F0000DF106000231022208F0B6DBF7B194F8D1
:10180000FD31DBB13388BDF804209BB29A4204D08D
:10181000D4F848310133C4F84831BDF8063029699D
:10182000DB439BB203F10F0708884FF6F0723A4092
:10183000904203D10B803380ADF804303288BDF87C
:10184000043092B29A4205D1D243BDF8061092B24A
:10185000914214D0328892B29A4204D0D4F84821EE
:101860000132C4F84821DB43BDF806209BB29A42FE
:101870001AD0D4F84C310133C4F84C3114E02B6940
:10188000A88A1A1D2A61021F92B2072AAA820BD9BE
:10189000D9790C380C3980B2C9B25E791A790C3317
:1018A00088422B61A8820AD2D4F81002002835D0D1
:1018B0000378002B32D0012109F0EED82EE05B181E
:1018C000411A2B61A98294F80531934206D0D4F8CD
:1018D000503184F805210133C4F8503194F80531B2
:1018E000013384F8053116F00F0304D1206929462D
:1018F0000AF00EDC17E0022B04D12069294600F023
:10190000ADFC10E0012B02D1FFF7BAFC06E00F2B73
:1019100004D120462946FFF7E5FE04E0A0682946E9
:1019200000220CF02FDCFEBD2DE9F3411F460546D9
:101930000C469DF82060002302E0E15C11B1013308
:101940009342FAD1E15C002940F09F804EB1591CCE
:101950000533934200F29C8001A86118042208F02C
:1019600003DB04F104084046524908F0D9DB50B9C2
:10197000002E00F09780D5F8B831019A013B9A42C9
:1019800000F289806FE040464B4908F0C9DB00282F
:1019900057D04046494908F0C3DB002853D04046A1
:1019A000474908F0BDDB90B928460EF0CBDE28B1E0
:1019B000002E79D0019B002B70D101E0002E73D056
:1019C000019B082B67D83F4A9A4064D570E0404697
:1019D0003D4908F0A5DB002837D040463B4908F0D8
:1019E0009FDB002833D04046394908F099DB0028B6
:1019F0002FD04046374908F093DB00282BD04046D3
:101A0000354908F08DDB40B34046344908F088DBA7
:101A100030B9002E4AD0019B082B3CD8162022E07A
:101A200040462F4908F07CDBC8B140462D4908F0FC
:101A300077DBB0B140462C4908F072DB70BB19204F
:101A400010E001200EE002200CE004200AE0052056
:101A500008E0062006E0072004E0082002E0172046
:101A600000E018202EB1019B05EB8005C5F89431EC
:101A700009E005EB800505F5CA712046042208F04F
:101A800073DA04233B6000200AE06FF0010007E0F6
:101A90006FF00D0004E06FF01C0001E06FF0160025
:101AA000BDE8FC813046E4E70320E2E71620E0E7EA
:101AB0000320D8E735BE830042BE83004EBE8300BC
:101AC0005ABE8300000080C161BE83006ABE8300ED
:101AD00071BE83007CBE830088BE83008FBE8300FE
:101AE0009ABE8300A2BE8300ABBE83002DE9F04FF7
:101AF00085B003920F9A0291109917460446DDF8BB
:101B000038A001929B46002B18BF002771B10D69C8
:101B10008A68436CAA1A14339A4201D280683EE064
:101B20008B8A103D10330D618B824FE0036C426B4A
:101B300003F110017818904226BFA2F11008C3EB00
:101B40000808B846A06841440CF048DB0646002867
:101B500050D0636C0569ED1808F1100305618382AC
:101B6000BAF1000F0BD0B8F1000F08D0514605F1C3
:101B70001000424608F0F8D9C244C8EB07070096A7
:101B8000A946B0461BE0666BA068B74238BF3E4628
:101B900031460CF023DB054638B9A06841460122E6
:101BA00005B0BDE8F04F0CF0ED9A514600693246A1
:101BB00008F0DAD9009BB244BF1B1D600095BAF152
:101BC000000F01D0002FDED14D464146029A019B05
:101BD0002A60039A6B60130C1B04BBF1000F01D049
:101BE00043F00103AB60054BC5F80CB01B6860689F
:101BF0001B69984705B0BDE8F08F00BF2C070000B7
:101C00002DE9F0410E4650210446154698460CF049
:101C10009DDA0746A0B10021502208F02DDA4FF4DA
:101C2000E8637B634FF47A73FB631C233B640C23F0
:101C30007B640423C7F80C803E607D60BC60BB649D
:101C40003846BDE8F08100002DE9F04FD1F8109042
:101C5000B1F814B0D9F8083091B00024BBF10F0FDF
:101C6000D9F800A006460D4608930D940E940F94E3
:101C7000D0F84080476C40F2C581D9F804301A0C86
:101C80000D9309D09BB293450D9304D20D94079404
:101C90006FF00D07B9E113460D9AB2F5005F02D956
:101CA00000240D94AEE1ABF1100B5B4538BF9B46B1
:101CB000EA68AB68C9EB0202391DC3EB090392B2B3
:101CC0008B42AA8205D95B1AC3EB0901D31829619B
:101CD000AB822B69296810332B61AB8A103B9BB216
:101CE0000493AB8229B1B06800220CF04BDA0023D8
:101CF0002B600D9BC7EB0808049908EB03028A428E
:101D0000CDF828800CD8D5F81080AA681437C2EB1B
:101D10000802BA4204D30122AB820024079217E0E2
:101D2000316CB068591814310CF058DA044660B1BF
:101D3000736C002103F11408036907919844BDF8FE
:101D40003430C0F81080838202E00122079280467E
:101D50000023099306930593CDF82CA0474662E033
:101D60000D9B9B4528BF5B460693002B51D0B06866
:101D700019460CF0EBD9059028B30699049B2C4624
:101D8000C3EB01080DE0736BB068984534BFC246E1
:101D90009A4651460CF022DA206040B1CAEB08089E
:101DA0000446B8F1000FEEDC059F00243BE02968F3
:101DB000012228600446B0680CF0E4D9B0680599A7
:101DC000069A0CF0CDD9944B1B78E3B10D9B0A9980
:101DD000CA185A450DD9C1F5806204995218934228
:101DE00007D9A3F580630D9301220023099205937F
:101DF000B6E704990A9A2F698B1A0D9300210123E3
:101E0000099305910FE0DDF82CA00D936FF01A07F0
:101E1000FCE0069A089BB846DDF82CA00D920493CE
:101E20004FF0FF37BCE0002F9AD0DDF82CA0B84669
:101E3000BBF1000F05D0384609F110015A4608F0F1
:101E400093D8764B9A4521D1BBF1070F40F2A4807D
:101E50000599D8F804A0ABF1080B08F1080889B976
:101E600014B12346224601E02B462A461269083265
:101E70001A6114B12346224601E02B462A46928A73
:101E8000083A9A82089B43F0020300E0089BDFF8BF
:101E90009C910493D144B9F5A07F28BFD146B9F5F0
:101EA000837F3AD006D8B9F1020F46D0B9F1FD0FC1
:101EB00049D10EE040F2071399451ED040F20B13B2
:101EC000994540D130680021554AF36B0BF016DE7E
:101ED00036E098F8023098F801201B0443EA022308
:101EE00098F8002098F803101343306843EA016122
:101EF0000AF014D9CA46002752E040464949042254
:101F000008F044D90346F0B9474A0121126800910C
:101F10009769706841465A460DE04046414904229F
:101F200008F034D978B9404B0D9A1B68009070685E
:101F30009F6941460DABB84702E030680AF0F4D81B
:101F40000746CA462CE0089B03F47041049B090B2A
:101F500013F0020208D00FAB01930EAB02930123E2
:101F6000CDF800B0039307E010AB53F80C0D0392CB
:101F70008DE809000EAB029330685246434600F0EC
:101F800027F910F10E0F07460AD1099941B1002334
:101F90000D936FF01A0703E0089B6FF01707049387
:101FA000059941B1B068294600220D9BCDF800800B
:101FB00008F00ADD08E0BDF83420002C14BF2346E9
:101FC0002B469A82002305930FB10E9B0D93079920
:101FD00029B92946B068079A0CF0D4D825460D9B3C
:101FE000049A0193304651463B46CDF80080029555
:101FF000FFF77CFD059ADAB11146B068069A0CF03D
:10200000AFD815E007946FF017070694089B4FF0C0
:1020100000080493CFE700BF38CF03003EDAFEFF8D
:1020200001C18000BF7203002C070000E0EB1B0021
:1020300011B0BDE8F08F00BF2DE9F0410C460B69EF
:10204000A268816C9A1A8A42074686683CD2B4F824
:102050001480304641440CF0C1D8054630B92146C1
:10206000304601220CF08ED82C4650E0C38AE28A1A
:1020700023F007031B0402F007021B0C1343C38267
:10208000E28AD2064CBF43F0100323F01003C38250
:10209000A37E8376E38A0069190544BF43F4006395
:1020A000E382E38A21691A0644BF43F08003E38296
:1020B000BB6C4246C01807F057DF2146304601226C
:1020C0000CF060D82C4604E05B1A2361A38AC9187F
:1020D000A182236920221A70E28AD00601D5242227
:1020E0001A70E28A110503D51A7842F008021A70B4
:1020F000E28A120603D51A7842F001021A70E28AC7
:1021000002F007025A7000229A70A27EDA7020460E
:10211000BDE8F081034670B59A6C8C8A8068944261
:1021200023D30A6915782D096E1E012E1DD8C88A81
:10213000567820F00700000406F00706000C304334
:10214000C882167816F0080F1CBF40F00800C8823D
:10215000012D01D1002000E0D07888769B6C002012
:10216000D218E31A0A618B8270BD00220CF00AD8E3
:10217000012070BD0029C36B09DD826C002A06DDD9
:1021800001399142BABF036C53F82130002318463D
:10219000704730B50346B9B1C06B814216D09D6C13
:1021A00000200CE01C6C54F82040A14200F1010416
:1021B00004D113699A7814439C7030BD2046A8421C
:1021C000F0DB4FF0FF3030BD084630BD002030BDA1
:1021D0007FB515461E46FFF7CDFF68B1099A036922
:1021E00000920A9A294601929DF82C2002925C697D
:1021F0003246089BA04701E04FF0FF3004B070BDAD
:1022000070B504460E46406811460BF0D7DF014614
:10221000E068FFF711FF0546D8B1204631462A464F
:10222000FFF7B7FF002814DB0B4B20681B6829461B
:10223000DB68984750B160682946E66908F0C6DE59
:10224000636980190133E061636102E0E36A01338D
:10225000E362002070BD00BF2C07000070B50B6961
:102260000446C0680D469E78FFF754FFC8B929465A
:1022700060680BF0DDDF054660B106F00F01204617
:10228000FFF778FF014628B103692A46DB68A06B97
:10229000984718B1A36A0133A36270BD2369013363
:1022A000236170BD73B50B46044600292FD0002A68
:1022B0002DD0816B79B9C56B002D28D1C2638363A2
:1022C0005A6253620095406821462268FFF798FCE5
:1022D000E060A8B91BE0994219D1C36B934216D0B4
:1022E000866C002009E0236C03EB800553F8203056
:1022F000013013B92A6051620BE0B042F3DB06E013
:10230000044805492246FEF7BFFF284601E04FF08A
:10231000FF307CBD89D783004DC1800030B5D1B17D
:10232000CAB1836BBBB18B4215D1C36B934215D03D
:10233000856C00230DE0016C01EB830451F8231040
:1023400003F10103914204D100212160184651623A
:1023500030BDAB42EFDB4FF0FF3030BD4FF0FF3010
:1023600030BD10B53DF02CFD3EF064FA04463DF062
:10237000E5FCFEF72FFD2046BDE810400BF0149B56
:1023800000487047B8E90300808ACB69B2FBF0F3DC
:1023900000FB1322D2B242F000421B0642EA134372
:1023A0008B61002300E001338869094A002802DAC2
:1023B0009342F8D106E0934204D0C30005D4C0F3A1
:1023C000407070474FF6FF7070474FF6FF707047D0
:1023D0008096980010B500244C61C1F8F440BDE827
:1023E0001040FFF7D1BF002313800B8070470139E5
:1023F00006291DD8DFE801F0040A1C1C101C170078
:102400002023438240238382802310E040234382A1
:1024100083824FF480730AE06023438240238382E7
:102420004FF4C07303E0102343824023838203826E
:10243000002070470139062914D8DFE801F00406AE
:10244000080A0C130E00402309E0602307E08023F4
:1024500005E0A02303E0C02301E04FF48073438232
:1024600020238382838A428A53431B1103820020E4
:102470007047000030B5CB6985B003F4E023B3F5B5
:10248000803F0C4626D1184B04AD0FCB05E90F0059
:1024900000231DF8032042F00142A261002200E067
:1024A0000132A1690029114902DA8A42F8D117E004
:1024B0008A4215D00433102BEBD1002300E0013306
:1024C000226912F0804F094A02D19342F7D107E006
:1024D000934205D06369002043F00043636101E04B
:1024E0004FF0FF3005B030BDF46E030080969800C9
:1024F000CB6903F4E023B3F5803F1BD14FF00243D7
:102500008B61002300E001338A69002A0F4A02DA56
:102510009342F8D114E0934212D0002300E001333B
:102520000A6912F0804F094A02D09342F7D107E0BE
:10253000934208D04B69002023F000434B61704761
:102540004FF0FF3070474FF0FF3070478096980093
:1025500030B5848ACB69B2FBF4F004FB102203F49B
:10256000E0230006D2B2B3F5803F14BF4FF02145FF
:102570004FF02A4542EA10432B438B61002300E0D1
:1025800001338A690648002A04DA8342F8D14FF001
:10259000FF3030BD83420CBF4FF0FF30002030BD14
:1025A0008096980010B5044C4C6140F20644C1F886
:1025B000F440FFF7E9FE10BD968D054038B5054C97
:1025C0001C4340F206434C61C1F8F430FFF7DCFED7
:1025D00038BD00BF9689054038B5054C1C4348F20C
:1025E00006434C61C1F8F430FFF7CEFE38BD00BFA2
:1025F00096890A4030B5054C1C4348F206434C61AD
:10260000C1F8F430BDE83040FFF7A2BF94090AC01A
:102610002DE9F84FD1F814A006460C461546D1F81E
:10262000F4B0002717E021462A463B463046FFF724
:10263000E1FF304621462A463B46FFF7CDFF012801
:1026400006D008F1FF385FFA88F8B8F1000FEAD138
:102650000137022F02D04FF01008E4E70023214693
:102660002A463046FFF7B8FF0123804621462A4616
:102670003046FFF7B1FFA0F10102574247EB0207D6
:10268000214600232A463046FFF798FF0123814662
:10269000214630462A46FFF791FFB8F1010F02D1DB
:1026A0004FB9012809D0B9F1010F08D1002F0CBF93
:1026B000FF20002004E0002002E0384600E0FF2078
:1026C000C4F814A0C4F8F4B0BDE8F88FCB6970B5B5
:1026D00003F4E023B3F5803F06460C4615460AD1C5
:1026E000FFF760FF01280ED0304621462A46BDE89C
:1026F0007040FFF78DBF00234B61C1F8F430BDE897
:102700007040FFF725BF002070BD0000036804483B
:102710009BB21818012894BFFF204FF0FF3070477C
:102720002557FFFF2DE9F843161E04460D4611DA22
:1027300090F830200026013A09E094F83100012198
:10274000801911FA00F0A169084218D001369642AA
:10275000F3DB14E0FF2E12D1876990F83100B4F852
:1027600044204FF0010C81180CFA01F1394202EBC0
:102770000C011646A4F84410F1D1082A3FDC94F865
:1027800031700122BF1912FA07F7A26917404FF002
:10279000FF3237D194F82F10089801F1010902FA9D
:1027A00009F943EA090394F82E9010FA01F102FAAC
:1027B00009F90B4323EA0909B84612E003FA08F3C2
:1027C00013EA090F0BD004EB46035A8E2046294624
:1027D0004244FFF77BFF002818BF4FF0FF3708F196
:1027E000010894F82E3098454FF00103E6D394F891
:1027F00031209619B340A6693343A36103E04FF03B
:10280000FF3700E017463846BDE8F88330B5848AC4
:10281000CB69B2FBF4F004FB102203F4E0230006C2
:10282000D2B2B3F5803F14BF4FF008454FF00545D5
:1028300042EA10432B438B61002300E001338A6995
:102840000648002A04DA8342F8D14FF0FF3030BD49
:1028500083420CBF4FF0FF30002030BD80969800BF
:102860002DE9F74306460D461F464FEA021800249D
:1028700057FA04F3D90713D504EB08093046294663
:102880004A46FFF723FF58B12846FFF73FFF0123D1
:1028900002460093304629464B46FFF743FF18B9DE
:1028A0000134102CE4D10020BDE8FE834FF0FF304E
:1028B00070472DE9F041002480460F461601254659
:1028C00040463946AA19FFF785FD4FF6FF73984237
:1028D00006D0A84001350443102DA4B2F0D100E089
:1028E00004462046BDE8F08170B50446058A80683C
:1028F00010F0D0DC00210646A06810F0F3DFA268DB
:102900005369222B05DDC36C9B059B0D0733DB0848
:10291000A3851046314610F0E5DFA38D6D00E81A5F
:10292000023870BD73B50023ADF80430ADF8063041
:10293000836804465B690D46272B05DDCB691B05C3
:102940001B0D1B11043B06E01B2B06D84FF49262B3
:102950009A4002D50C2383620EE0242B01D0272B52
:1029600004D1238A7F2B05D80C2304E0172B01D038
:10297000182B01DD1423A362EB6903F4E023B3F504
:10298000803F0ED04FF00443AB61002300E00133E1
:10299000AA69002A2E4A02DA9342F8D156E09342FD
:1029A00054D02B69A26AA36103322046294607F05E
:1029B0000FDA284BA269000903401343A36103F413
:1029C00040730022B3F5407F84F84620A26402D110
:1029D000012384F84630A36A0DF106020433A38371
:1029E000238A2046E383E38401A9FFF7FCFCBDF8BA
:1029F0000620BDF80430D61AB6B216B1E38363845C
:102A0000A284A369DB0508D520462946A26A07F0FF
:102A1000DFD90009E083208401E0A38B2384AEB9D1
:102A20002046FFF761FFA36900EBD070401060847F
:102A3000980509D5A26A20462946013207F0C8D96F
:102A400000096084A08401E0238CA3847CBD00BFC6
:102A50008096980000FFFF002DE9F04F002985B017
:102A6000044690469B46029156DB8A18438A818A27
:102A70004B439A4250DC806810F00CDC002103903C
:102A8000A06810F02FDF054629462046FFF7F2FC2C
:102A9000002629E01BF8017B4FF0080A01E04645BB
:102AA00022D0FA071BD5029B204606EB03092946D4
:102AB0004A46FFF70BFE90B12846FFF727FE012399
:102AC00002460093204629464B46FFF72BFE30B1C5
:102AD0006B694FF0FF3023F000436B611EE07F080D
:102AE0000136BAF1010ADAD14645D3D32946204648
:102AF000FFF7FEFCA068002110F094DDA068012122
:102B000010F090DD20462946FFF70CFFA0680399DE
:102B100010F0E8DE002001E06FF01C0005B0BDE819
:102B2000F08FF8B50446806810F0B4DB002107464A
:102B3000A06810F0D7DE064631462046FFF79AFC23
:102B400031463F222046FFF761FE3146002814BF80
:102B50004FF0FF3500257F222046FFF757FE002863
:102B600018BF6FF00105314680222046FFF74EFE68
:102B7000002818BF6FF00205314681222046FFF77A
:102B800045FE31460028204618BF6FF00305FFF7C9
:102B9000AFFCA068002110F045DDA068012110F015
:102BA00041DD20463146FFF7BDFEA068394610F0F2
:102BB00099DE2846F8BD01392DE9F84F04469146C3
:102BC0001E460E2971D8DFE801F0081870287070D1
:102BD00070347070707070703B0090F84620838B7A
:102BE0000AB1C58C00E0C58BED1AA369D8052ED5B6
:102BF0003368AB4233D3A78B36E090F84620038C82
:102C00000AB1C58C00E0458CED1AA36999051ED563
:102C10003368AB4223D3278C26E083694FF002054B
:102C200013F4806F13D03368012B18D9876A0237E9
:102C30001AE0878CC58C8369ED1B13F4006F05E0E7
:102C4000878BC58C8369ED1B13F4407F04D13560FD
:102C50006FF01D00BDE8F88F3368AB4204D23560D9
:102C60006FF00D00BDE8F88FA06810F013DB0021B5
:102C70008346A06810F036DE4FF00008824609E077
:102C800008EB07022046514607F0A2D808F10108D8
:102C900029F8020BA845F3D1A068594610F022DEAE
:102CA000C6F800800020BDE8F88F6FF00100BDE895
:102CB000F88F00002DE9FF470446806816469A46C3
:102CC0000D4610F0E7DA00218046A06810F00ADE19
:102CD0000746204607F09ED8314681465246684650
:102CE00007F0FADB4FEA5909002615E0B30704D1D3
:102CF00068461149720007F009DC20463946324621
:102D000015B907F065D801E0FFF7D3FD02460B497E
:102D1000684607F0FBDB01364E45E7D168460849B7
:102D200007F0F4DBA068414610F0DCDD029B009860
:102D3000C01A04B0BDE8F087F1720300FA72030014
:102D400048F583002DE9F041436986B0152B05460F
:102D500002D0162B40F3B580284610F021DC28461F
:102D600010F022DC002800F0AE80284610F092DA45
:102D700000210746284610F0B5DDAB69064603F48E
:102D800060134FEAD348002B00F09580FFF7F8FA64
:102D9000F369044603F4E0231B0C012B03D14146E5
:102DA000FFF748FB03E013B94146FFF720FB6B69CF
:102DB000272B0DDD464B01AA03F1100C186859684A
:102DC0009646AEE80300083363457246F6D156E0F6
:102DD000242B10D13F4B01A918689B880190062233
:102DE00004F13200ADF8083007F0BED8032384F8B0
:102DF00030300F234FE0152B01D0182B1AD1364B52
:102E00000DF1040E03F1100C18685968724603C2E4
:102E1000083363459646F7D104F1320001A9102228
:102E200007F0A2D8082384F830300F2384F82E301E
:102E30000B2333E01B2B15D1284A01AB10685168D6
:102E4000082203C304F1320001A907F08DD804233E
:102E500084F830300F2384F82E300B2384F82F3081
:102E600014231EE01E4B01AA03F1100C18685968C8
:102E70009646AEE80300083363457246F6D11B88D8
:102E800004F13200138001A9122207F06DD8092342
:102E900084F83030112384F82E300D2384F82F303D
:102EA000102384F831300023A4F844302046314602
:102EB000FFF738FD00E044462846394610F012DDA1
:102EC00002E0002400E00446204606B0BDE8F081A0
:102ED000046F0300166F03001C6F03002C6F0300C8
:102EE000346F03002DE9F74304468068164699467F
:102EF0000F4610F0CFD900218046A06810F0F2DC18
:102F0000054629462046FFF7B5FA33463A46294694
:102F10002046CDF80090FFF705FC294606462046DE
:102F2000FFF7E6FAA068002110F07CDBA068012121
:102F300010F078DB20462946FFF7F4FCA0684146F4
:102F400010F0D0DC3046BDE8FE832DE9F041DDF81D
:102F50001880074614461E460D010FE0E1070AD50A
:102F60004046FFF7D3FB2A46014606F001033846E8
:102F7000FFF7B8FF28B9013564087608002CEDD1B9
:102F80002046BDE8F081F7B514461F4605460E46BB
:102F900006F01EDF80EA070292B252B128462146AF
:102FA0003B460096FFF7D1FF002818BF6FF01500D1
:102FB00000E01046FEBD2DE9F84304468068164641
:102FC0000F4610F067D900218046A06810F08ADC17
:102FD0000546294620463A4606F0FADE30EA060360
:102FE00019D180EA060929461FFA89F92046FFF718
:102FF00041FA29463A464B462046FFF731FC29461E
:103000002046FFF775FA294620463A463346FFF731
:10301000BAFF054601E06FF00105A068414610F0D7
:1030200061DC2846BDE8F8832DE9F04F9046826ABE
:1030300089B01F464B1E044603910592072B00F2F0
:10304000AC81DFE813F008001200AA011C00AA01FD
:10305000AA01AA012F00868BC38B9B1B9F4200F203
:103060009F818369C3F3002328E0068C438C9B1B5C
:103070009F4200F295818369C3F340231EE0836978
:10308000580500F18A81022F00F28A8105D1B8F833
:10309000023013F4704F40F07D81059B00229E1C8E
:1030A00001920CE0836913F4006340F07681C68CD2
:1030B000828CB21A974200F27381F61B0193A068CA
:1030C00010F0E8D800210790A06810F00BDC7B001E
:1030D00005461946E06804930BF038D802900028A2
:1030E00000F051814FF00009CA46834618E038F8D5
:1030F000092020462BF8092029460AEB060206F093
:1031000067DE28F809003BF8093030EA030240F096
:103110004D81584028F809000AF1010A09F1020915
:10312000BA45E4D120462946C346FFF7A3F94FF03C
:10313000000ACDF81880A84625465C4611E02846CE
:1031400041460AEB060234F8023BFFF789FB30B137
:103150008146414628462C46FFF7CAF92EE10AF17E
:10316000010ABA45EBD1059B019A2C464546D84643
:103170004FEA031B002A78D1039A531E072B74D8F9
:10318000DFE803F0043473527373736194F84630CC
:10319000A3B1A36C294606EB030E4FEA0E1E4FF6B1
:1031A000F073A26A20460EEA0303FFF759FB20469C
:1031B00029460BF13D02FFF789FA0CE00AEB060EF7
:1031C0004FEA0E1E4FF6F07320462946A26A0EEA19
:1031D0000303FFF745FB29460BF13C022046FFF7AE
:1031E00075FA204629460BF13B023CE04FEA061EE9
:1031F0004FF6F0730EEA03032946A26A2046FFF752
:103200002FFBB4F822E0A26A4FEA0E1E4FF6F073CD
:103210002946013220460EEA0303FFF721FB204630
:1032200029460BF13D021EE0204629460BF13E02E5
:10323000FFF74CFA012F18D9B8F8023043F4804355
:10324000A8F8023011E0A26A4FEA061E4FF6F073AA
:103250002946013220460EEA0303FFF701FB204610
:1032600029460BF13F02FFF731FA29462046FFF7C6
:103270003FF9A068002110F0D5D9A068012110F015
:10328000D1D9019B002B60D1039A531E072B31D853
:10329000DFE803F0041630423030302A94F846203C
:1032A0003AB1A36C4FF03C0AF3181B019BB2002209
:1032B00027E00AEB06031B019BB24FF03C0A20E01B
:1032C0004FEA061E4FF6F07320462946A26A0EEA20
:1032D0000303FFF758FE814600286FD1638C4FF03F
:1032E0003D0A1B019BB203E033019BB24FF03F0A42
:1032F000012206E0039B4FF0000A042B0ED0534638
:103300005246D4F828E0204629467244FFF73BFE97
:103310008146002852D101E04FF03E0ADA442046AF
:1033200029465246FFF756F84FF6FF73984240D0B1
:1033300058B92846FFF7EAF95246014601232046CC
:10334000FFF7D0FD8146002838D120462946FFF7F7
:10335000E9FA40460299049A06F006DEAA464FF0C2
:1033600000082546069C0AE02846514608EB06025E
:1033700034F8023BFFF707FEF0B908F10108B84541
:10338000F2D12C4615E06FF01A09A068079910F0E9
:10339000A9DA07E06FF0010904E04FF0FF3901E01E
:1033A0006FF00E09484609B0BDE8F08F6FF00109D3
:1033B00004E04FF0000901E081462C46E0680299E4
:1033C000049A0AF0CDDEE0E770B5044680680E4648
:1033D0000FF060DF00210546A06810F083DA636813
:1033E000324601465B682046984729460646A06853
:1033F00010F078DA304670BD10B54468646BA047B1
:1034000010BD000070B50446FEF7BAFF00214C2243
:10341000054606F031DE6369152B2B6001D0162BB3
:1034200003D9114B114A9A606B606B68C3B1AC60F1
:10343000204610F0F3D8E860204610F0B5D80646D4
:1034400018B92046012110F0EDD86B6820461B69A1
:10345000984705462EB92046314610F0E3D800E0E3
:103460001D46284670BD00BF3CCF0300B52C0000B0
:103470002DE9F84304460F469146984610F094D83B
:10348000054618B92046012110F0CCD8204610F08E
:103490008BD878B1204610F083D858B92046FFF772
:1034A000B1FF50B1436839465E694A464346B0476A
:1034B000064604E06FF0180601E04FF0FF361DB934
:1034C0002046294610F0AED83046BDE8F8832DE9F5
:1034D000F84304460F469146984610F065D80546D5
:1034E00018B92046012110F09DD8204610F05CD874
:1034F00078B1204610F054D858B92046FFF782FF23
:1035000050B143683946DE694A464346B0470646ED
:1035100004E06FF0180601E04FF0FF361DB92046B9
:10352000294610F07FD83046BDE8F8832DE9F04FEA
:103530001D4685B04FF4C0730F469246039306466E
:1035400010F06CD84FF4407183460AF0FFDD04465A
:10355000002800F0848000214FF4407206F08CDDDA
:1035600030463946224603ABFFF782FF10B110F117
:103570001E0F74D1002D6AD01E3010D1039BFF2284
:103580004FEA430904EB090303F8012C03F8022C6A
:10359000A9F1020300209D4244DA804644E0022F54
:1035A00012D1039B00205A0002E0215C11B90130C6
:1035B0009042FADB03F10043013BB0EB430FA8BF9D
:1035C0000020039A520016E07369232B47DD002187
:1035D00030461C220B4600910FF062DE0028ACBF83
:1035E00008200C20EDE7235C0BB9034609E0231803
:1035F0005B78C01802309042F5DBF6E7E15C11B968
:1036000001339342FADB00EB050919F0010F18BFF3
:1036100009F10109013B9945ACBF6FF00E084FF06D
:10362000000801E06FF00E08201851462A4606F007
:103630009BDCB8F1000F0BD109EBD9793046394644
:1036400022464FEA6903FFF742FF804600E0A846A2
:10365000584621464FF440720AF082DD01E04FF0F7
:10366000FF38404605B0BDE8F08F2DE9F041054632
:10367000884617461E46FFF7C5FE40B143684146DF
:103680001C6A28463A463346A047BDE8F0814FF011
:10369000FF30BDE8F08170B504460FF085DF0646C7
:1036A00018B9204601210FF0BDDF20460FF07CDF66
:1036B00060B120460FF074DF40B92046FFF7A2FE4C
:1036C00038B143685B6A9847054604E06FF0180517
:1036D00001E04FF0FF351EB9204631460FF0A2DF62
:1036E000284670BD08B543689B6A984708BD10B569
:1036F0004468A4680CB1A04710BD6FF0160010BD5F
:1037000010B58AB00446114606A81A4606F0E4DE53
:10371000226806A8134906F0F9DEA18A228A638A84
:10372000009106A8104906F0F1DE218CA28B0091D1
:10373000618CE38B0191A18C06A80291E18C03912D
:10374000A18D0491094906F0E1DEA26AA36906A8E9
:10375000074906F0DBDE06A8064906F0D7DEC820DA
:103760000AB010BD02730300167303003073030028
:103770006373030048F5830070B51E46CB0705460A
:1037800014463CD4B1F5407F39D8B1F5DC7F38D34D
:103790003AD1B2F8402045F272318A420AD0B4F8E8
:1037A00080308B4206D01B481B49FDF785F94FF04E
:1037B000FF3070BD22884FF6FF739A4206D117483A
:1037C0001549FDF779F9002E21D116E0204640F287
:1037D000B711FF2200F052F994F8B631C04343EA22
:1037E0000023A4F8B6319EB12846012122464FF4A9
:1037F000DC73BDE87040FFF738BF304670BD012074
:1038000070BD6FF00D0070BD6FF00E0070BD002038
:1038100070BD00BFF17303007C73030022740300CA
:103820002DE9F04F87B0049181464FF4407118465E
:103830001E460592DDF840A0DDF844800AF086DCE3
:103840004FF44071044630460AF080DC0546002CF7
:1038500000F0A880002800F0B78045F2AA539A45EE
:103860000AD048EA0A03DA0700F1AE8008EB0A033F
:10387000B3F5407F00F2A8803146484606F026DBCB
:103880000023009301900393029448460499059AFB
:10389000334606F017DB002840F096804E49B4F816
:1038A0004020B4F880304D48FDF706F922884FF6E5
:1038B000FF739A4245F2723132D11298B0F840202B
:1038C000B0F880308A4201D08B4209D14448424945
:1038D000FDF7F2F8B8F5DC7F70D372D1DC270FE08A
:1038E000B8F1800F05D13F483B49FDF7E5F8402787
:1038F00006E03D483849FDF7DFF86FF0010764E066
:1039000000234FEA470B8DE80808039302944846CA
:103910000499059A334606F0D5DA002854D11CE004
:10392000B4F840308B4203D0B4F880308B4211D1D0
:1039300000234FF4DC778DE8880003930294484617
:103940000499059A334606F0BDDA00283CD1BB46FF
:10395000DC2702E04FF0800B402745F2AA539A453E
:1039600028464FEA470203D1FF2106F085DB2BE012
:10397000214606F0F9DA2AF0010012994246281889
:1039800006F0F2DAFF2228460BF1FF3100F076F85C
:10399000013F15F81720C343DBB242EA032325F8A1
:1039A000173011E001272DB1304629464FF44072FF
:1039B0000AF0D6DB384607B0BDE8F08F6FF00D0790
:1039C00003E06FF00E0700E00127304621464FF478
:1039D00040720AF0C5DBE6E7F17403003F740300B0
:1039E0006F7403009F740300B874030070B504463D
:1039F0000E46084600291FD006F0BEDB054690B9EA
:103A00001AE0204631462A4606F098DA28B9635D66
:103A10003D2B02D10135601970BD234613F8012BEF
:103A20001C46002AFAD114B12378002BE9D1304684
:103A3000BDE8704000F034BC70BDFFF7D7BF3FF069
:103A4000C3B83FF0A9B83FF090B8000000F12902D8
:103A5000292A08B5034606D905482021054A06F05B
:103A600033DB034808BD044A434252F8230008BD33
:103A700006EA030044BF8300FC740300034604E02D
:103A800013F8010B42400348825C11F1FF31F7D279
:103A9000104670472C4A8300826BD0F89030116931
:103AA0005268D21ACB1ADB04D204DB0DC3EBD2531B
:103AB000B0F86C20013A03EA0200704708B5416B88
:103AC00009B9816B21B1806A08F014DD012008BDBD
:103AD000084608BD10B5044620B90D48FCF7ECFFB8
:103AE000204610BD806820EA010141EA0200C307B8
:103AF0000BD5636B1A6842F400611960636B196837
:103B000009054CBF1A6020F00100A06010BD00BF85
:103B1000F08503002DE9F0430446A76894F8C0300F
:103B2000002085B007F01007039087420CBF0127E3
:103B30001027002B75D1012284F8C020B4F87050F2
:103B4000B4F86C90B4F86E2009F1FF39AA1A09EAAA
:103B50000209D4F89C20C9EB0209B4F89420AC2ADD
:103B60008CBFD4F89880984600264CE0D4F8B80072
:103B700020B1037813B106F0D5DF07E0B4F8941054
:103B8000A06A0139C91941440AF028DB50B92EB99D
:103B9000204609F0BFD8003018BF01202369013347
:103BA000236133E0A36813F0100303D003697A1E86
:103BB000FB1A134013EB080305D00269D218026107
:103BC000828AD31A83820269616F0023136041F8ED
:103BD00025000393B4F86C302046013B9D4204BF9E
:103BE0004FF08053039303AB0093B4F89430216CEF
:103BF00001932B4608F094DFB4F86C300135013B9B
:103C00001D40ADB201364E45B0D10020D4F8902011
:103C1000A36BA4F8705002EB05155D60002384F8D7
:103C2000C03005B0BDE8F0832DE9F74F0191C42104
:103C3000054614469A46DDF834800E9FDDF83CB008
:103C4000DDF84C900AF082DA0646002800F0F48095
:103C50000021C42206F010DA794B0021B9F1000FDF
:103C600008BF99460A46C6F81C9020460FF004DBB0
:103C70000C9BC0F30030B363724B86F830003360A6
:103C800003210022C6F834A03046FFF723FF336833
:103C90000421D3F8943030460A4698470C9B33B140
:103CA000B36B1B6803F4E0139B0C86F8B530BAF1D4
:103CB000000F06D0736B1B6803F4E0139B0C86F8AF
:103CC000B630082206F12000019906F085DA0023BB
:103CD00086F82730109B6268B3F1FF3F08BFAC2322
:103CE000BBF1AC0F88BFC3EB0B0BC6F89830BDF827
:103CF0004430B562C6F89C309DF84830F462C6F88E
:103D0000A0300023012AA6F84680A6F86C70A6F819
:103D100094B0C6F8A430C6F8AC3013D1A268B2F59E
:103D2000026F16BF4FF080424FF00043C6F8A42048
:103D3000C6F8A830D6F8A430C6F8AC30D6F8A8300B
:103D4000C6F8B03020460FF09BDA40F629039842BF
:103D500008D120460FF0A8DA20B120460FF0A4DAEF
:103D600002280FD920460FF08BDA40F63403984230
:103D70000CD120460FF098DA20B120460FF094DAEB
:103D8000012803D1002386F8313004E03046FFF7E4
:103D900095FE86F83100304608F016DC86F8B4004F
:103DA00058B10D23B8F1FF0FA6F844300BD8FF2F00
:103DB00006D80C22A6F8442002E00423A6F84430DA
:103DC000B8F1000F0BD04FEA8804284621460AF0CC
:103DD000BDD9F06460B30021224606F04DD957B139
:103DE000BC00284621460AF0B1D9706700B3002113
:103DF000224606F041D9B8F1000F04D03046012127
:103E000008F08CDBA0B127B13046022108F086DB38
:103E100070B1D6F8A4307BB196F8313063B9B36D88
:103E2000B3F1804F04D8D6F88030B3F1804F03D976
:103E3000304608F0E1DB00263046BDE8FE8F00BFCB
:103E400028EA03002C850300FFF726BE094B1B78E8
:103E5000012B04BF084B1868084B18BF00201B78C3
:103E60000860012B0ABF064B40F2FF731B6813600A
:103E7000704700BF38EA030030EA03002CEA030071
:103E800034EA030000487047E45483000048704758
:103E9000DC5483000023C2F86036D2F864260F4B4E
:103EA00013409A080E4B04E0596891420FD0083332
:103EB00009D019880029F7D105E05968914208D046
:103EC000083301D107E0074B19880029F5D10648CE
:103ED0007047064870470448704700BFFCFF3F002A
:103EE000AC548300DC54830000D8B805401AC805E0
:103EF00008B50023C2F86036D2F86426104B134090
:103F00009A08104B04E0596891420FD0083309D049
:103F100019880029F7D105E05968914206D0083385
:103F200001D105E0084B19880029F5D11A8812B98A
:103F3000FFF7A8FF03461B884FF47A70584308BD6B
:103F4000FCFF3F00AC548300DC54830073B505468E
:103F500014461E4600914FF4CB6200214FF0FF3310
:103F60000FF09ED92846002140F25C62234600965D
:103F70000FF096D97CBD38B504460FF08BD90021DF
:103F8000054620460FF0AEDC204629460FF0AADC9D
:103F90006FF0160038BD0000014B1860704700BF7D
:103FA000380700002DE9F04385B0054689461746DD
:103FB0000FF0F6DA0646002851D128460FF06AD9EC
:103FC0003146804628460FF08DDC012304464946E1
:103FD000009322464FF40073284609F02DDA02A917
:103FE000814603AA284602960396FFF72FFF029BFD
:103FF00029EA0309D4F81836B7B143F4007343EA49
:104000000903C4F818364FF47A7009F073DE40F2F1
:10401000DD5602E00A2009F06DDED4F80C36990571
:1040200008D4013EF6D105E049F4007923EA0903FA
:10403000C4F818360B2602E00A2009F05BDE22697C
:10404000002F14BF4FF48053002302F480529A4291
:1040500001D0013EF0D1284641460FF043DC05B0C7
:10406000BDE8F0832DE9F84F1A4B07461C688846D7
:104070001EE0E568A368BA4605EB030B00260EE0D8
:10408000284606F079D800F101094E44B04518DB06
:10409000504629464A4605F067DF4D44CA445D450F
:1040A00002D22B78002BEBD12468C6EB0808BF198D
:1040B000002CDED1B8F1000F07DD3C702046BDE8D2
:1040C000F88F6FF00D00BDE8F88F6FF00D00BDE8C0
:1040D000F88F00BF3CEA0300F8B5044610460F46CF
:1040E000164606F049D8054611E0204631462A46D4
:1040F00005F024DF28B9635D3D2B02D1013560193D
:10410000F8BD234613F8012B1C46002AFAD1BC4205
:1041100003D220780028E8D1F8BD0020F8BD0000C7
:1041200070B5054606F028D8114B06461C6813E00A
:104130000F2EE36802DDE08DA16806E0F21D34F881
:10414000120006F1080234F81210181859182A46FD
:10415000FFF7C2FF58B92468002CE9D1054B2A4665
:10416000186800F15901BDE87040FFF7B5BF70BD98
:104170003CEA030078CF03002DE9F74F0C460FF01F
:104180004DDA41F201010190E56809F0DFDF0146F7
:10419000002800F0828000F1010C064620E0013288
:1041A0001870D2B2434638783D460137C0B13D2839
:1041B00003F10108F3D1327028464646002203E09D
:1041C00001323770D2B2664610F8017FC3EB0508A2
:1041D000B04406F1010C002FF2D11A7008F101056C
:1041E000E768A368FB189D4205D22B781BB12F46C8
:1041F00063460022D7E725460123E2688B46BA1AB8
:104200002A823CE0584610F8012B9A4202D14FF026
:10421000000C0AE0102B2BD10F2AF8DC28E01BF849
:10422000018F07F80C800CF1010C6245F7D100EB0F
:104230000209805C07EB02084FF03D0C07F802C052
:1042400009F1010B08F1010C471C0022AA4603E00A
:1042500019F8025008F802500132BA42F8D10CEBBA
:1042600000070022554683440CF80020013706E081
:1042700010F802B000EB020C0BF1010BE344B34564
:10428000C0D301330235112BB7D101984FF48052BE
:1042900003B0BDE8F04F09F0639F03B0BDE8F08FB5
:1042A000FFF73EBFFFF7DEBE38B515460C4681B1BD
:1042B000002A11DD0EF0EEDF29460346084A2046AB
:1042C00005F002DF031E4FF0000001DBAB4205DB0F
:1042D00020704FF0FF3038BD4FF0FF3038BD00BFC9
:1042E00011860300002070470020704713B5144664
:1042F00042690A2A0FDD29B1012905D002290AD114
:10430000842202E0782200E07C22009300212346F0
:104310000EF0C6DF01E04FF0FF301CBD2DE9F04785
:1043200004460FF09DD800210A460B46074620465A
:104330000FF0BAD800210A460B4606462046FFF782
:10434000D5FF00220546022120461346FFF7CEFF87
:10435000D4F87880814616E0D8F808308BB198F808
:104360000420002AD8F80C200CBF284638460CBF81
:104370004946314610400A40904202D0D8F8001019
:104380009847D8F81080B8F1000FE5D12046414693
:104390002A462B46BDE8F047FFF7A8BF43692DE941
:1043A000F743222B05460E4640F3B6800FF07CD92A
:1043B000002800F0AF80072E00F2AE80AB68B3F5A6
:1043C000026F0BD040F6040293420AD1EB680C2B2B
:1043D00094BF4FF000084FF0010804E04FF00108CF
:1043E00001E04FF000085FFA88F8B8F1000F0AD139
:1043F00028464FF400614246D5F8CC900FF062DABF
:10440000044640B989E0D5F8884014F5405400F0DE
:1044100084804FF00009A36A012E23F0030304D027
:10442000032E04D143F0020301E043F00103A36231
:10443000E36B012143F00103E36328460FF0CCDA7C
:10444000D4F8303123F00403C4F8303101239E4204
:10445000C4F8303104D9042E0CBF0D23092300E029
:104460000D23C4F83031D4F83031012E23F001038C
:10447000C4F8303101D9042E36D1FF2700214FF482
:10448000E2723B46284600970EF00ADF4423009371
:1044900000214FF4EE723B4628460EF001DF282340
:1044A000009300214FF4E6723B4628460EF0F8DEFA
:1044B0008123009300214FF4E8723B4628460EF01A
:1044C000EFDE174B002100934FF4A4724FF0FF333F
:1044D00028460EF0E5DE284600214FF4A6724FF67E
:1044E000FF7300970EF0DCDED4F8303123F0700358
:1044F00043EA0616C4F83061D4F8303123F00803DB
:10450000C4F83031B8F1000F07D1284649460FF002
:10451000E9D902E0044600E000242046BDE8FE831D
:104520000100FF0070B5856E04466DB1D0F8CC3047
:1045300000EB8303D3F8D420036E9A4203D1406E7C
:10454000A847054600E000252046A16DFFF713FDB2
:10455000E36E06465BB1D4F8CC2004EB8202D2F8BD
:10456000D410226E914202D1606E2946984730469F
:1045700070BD2DE9F043022A87B005461646109C0F
:10458000139F4BD0032A1AD0012A40F08A8021467B
:10459000042204A805F0E8DC0222211D05A805F08C
:1045A000E3DC55F8100B3946BDF81480049E21F069
:1045B000A1D94146009032462846A31D2BE0022295
:1045C00021460DF1160005F0CFDC211D042204A8C0
:1045D00005F0CADC022205A804F1080105F0C4DCDC
:1045E000BDF81630012B5FD1A37A6A6893425EDA78
:1045F00039464FF01C09286809FB0359BDF814809F
:10460000049E21F077D909F11009009041464846EF
:10461000324604F10B0311F09DDE4DE00E9B416824
:104620001B688B42039342DA002B40DB012306A96F
:10463000ADF816300B2321F8043DA01C05F094DCE6
:104640000DF118080DF116013246204605F08CDCFC
:1046500058F80C1D1C2707FB01513246183104F194
:10466000080005F081DC0122414604F10A0005F052
:104670007BDC0399042207FB0151201D143105F056
:1046800073DC039B119907FB03552A8B02F10B0383
:1046900099420FD304F10B00E96905F065DC0020B5
:1046A0000AE06FF0160007E06FF0240004E06FF0FE
:1046B000010001E06FF00D0007B0BDE8F0830000DD
:1046C00000487047A8CF03008B7E0A69D2180A61A0
:1046D0008A8AD31A8B8270470020704770B58C6924
:1046E00016462369994203D0CD6A15B12D6800E0C2
:1046F000002563683146D86809F060DD2046314600
:10470000FFF7E2FF63683146D86809F057DD2946B4
:104710000646A06821F0EED8A06831462A460DF082
:104720003DFF003018BF012070BD2DE9F8434368FC
:104730001746DE688A680B690C469A1A032A91F8B4
:104740002B802ED8B1F81490304609F1040109F0FD
:1047500045DD054630B921463046012209F012DD1B
:104760002C462CE0C38AE28A23F007031B0402F0E4
:1047700007021B0C1343C382E28A2169D2064CBF95
:1047800043F0100323F01003C38200694A4604304B
:1047900005F0EADB21463046012209F0F3DC2C4625
:1047A00004E0043B0B618B8A04338B822369002174
:1047B000012219705A7083F80280D9703A7020462D
:1047C000BDE8F88343683C22D86809F0C99C000022
:1047D0002DE9F347984643680546D3F80C900369E2
:1047E00092465E6A3EB348463C2109F0AFDC04467F
:1047F00010B300213C2204F10C0705F03DDC67609A
:10480000C4F80080FFF75CFF6B68E0616562CDF87B
:1048100000A010210D4A5B68384605F055DC0C4BB2
:10482000A4631B6830465B6839469847002806DD5C
:1048300088F8050000E034462046BDE8FC872146A4
:1048400048463C2209F08CDC0024F5E7D9C58300FA
:104850002C070000F7B500230093099B0546032BA6
:1048600017460A9C866804D968460899042205F010
:104870007BDB0098052F31D8DFE807F0030608132B
:104880002B286B7D236027E0687525E030462521C5
:1048900001AA15F0D5DF18BB019B03F001032360CB
:1048A0001EE0041C18BF012430462621002C0CBF3A
:1048B0004FF480324FF0011217F0CCDC14B109F044
:1048C00045D909E009F00ED9204609E009F030D9B0
:1048D00002E009F047D92060002001E06FF01600E7
:1048E000FEBD000038B505466B6880681B7FB3B914
:1048F00007F0D1FC044620B9D5F8800011F0B0DDF6
:104900000446FCF767FA6B68D3F8901041B10B7856
:1049100033B1044B0022186806F0C6D800E000242A
:10492000204638BDECE8030010B5436804461B7F01
:1049300053B1D0F8800011F07DDDA0680FF02CFF9E
:104940006368002283F8242010BD00001FB5084AC8
:1049500003460092074A08460192074A0749D2696E
:1049600002921A68064B05F0D1DD05B000BD00BF0C
:1049700077860300C472030004E90300488603003D
:104980006B86030010B50C46002B0CBF01210221E1
:104990002346BDE81040FFF71BBF000038B5074BAA
:1049A00002691B6805460C469B68506A496898472F
:1049B00028462146BDE83840FFF704BF2C07000019
:1049C0002DE9F7430023044617468DF807300029E8
:1049D0004FD091E848003A69756AA068194692F884
:1049E0000C9092F80D8020F085DF002D3AD048EA37
:1049F000092848F66C03984519D0EB69D80707D504
:104A0000637D2BB12046394612F062D8024650B180
:104A1000636893F88A3053B1D4F8840039462EF095
:104A2000FBFD024618B963683946D8681EE039466E
:104A300020460DF10702FFF778FE0146E0B19DF830
:104A4000073083766368D86809F0F2DB2B69044687
:104A5000DB68304629462246984768B1204609F06F
:104A600041DB09E063683946D8682A4609F08ADBE9
:104A700002E006690B46AEE7BDE8FE83536807B562
:104A8000112B08D0122B01D0102B0ED1937803F0EC
:104A90000103037509E002AB002143F8041D80689F
:104AA00092F82F101A4620F073DE0EBD90F92900FF
:104AB0007047002070476FF0160070470368024689
:104AC00070B518460BB30178104C0346655C013095
:104AD000AD0601D421B901E00029F4D1002000E0A5
:104AE00018461D4613F8011B665C16F0200F01D016
:104AF00019B907E00029F4D104E02B46002103F89E
:104B0000011B00E00023136070BD70BD2A458300C7
:104B10000A29D0F8443605D00F2905D0032904D13D
:104B20001A7070475A7070479A707047D1F8743392
:104B3000002130B5597302F11004107800F06001C3
:104B40004911C00604D5012088405D7B2843587375
:104B5000508804324001A24223F81100EDD130BD4B
:104B600070B51678D1F8743306F060056D1103F155
:104B70000E04023504F8256004EB85005478447077
:104B8000528842808A793AB11A7D511C01F00F0196
:104B900022F00F020A431A75002070BD036A93F8D1
:104BA000FC2051B2481C01D1082204E001F0C001F0
:104BB000891101EB820283F8FC20704700207047C6
:104BC000012B24DD03689B6B3BB1D1F8D83003F097
:104BD0000203002B0CBF0C2300231370887950B103
:104BE000B1F86600400606D591F86800012804BFB8
:104BF00043F00103137000235370D1F8D80010F470
:104C0000000006D0022113705170184670474FF013
:104C1000FF3070470020704700207047B2F84C20EA
:104C2000B0F8303522F4FE4222F0E70247F6E07198
:104C300001EA431142F004020133A0F8303542EAA0
:104C400001007047F0B5D0F81447059D0C59002CB1
:104C500044D0D4F814C0D0F8F4612768BCEB060641
:104C600018BF0126002F08BF46F00106176AE26848
:104C70007A4012F4403F626818BF46F00106934242
:104C80000CBF334646F00103A268267C95420CBF58
:104C90001A4643F001029DF818309E420CBF13469D
:104CA00042F001030A6992794AB191F8DF20647CED
:104CB000003218BF0122944218BF43F00103C269B9
:104CC00002EB850502686968126A0868926C904276
:104CD00038BF43F0010383F00100F0BD2046F0BD72
:104CE0000A690346D2F87C2392F90800032804D00D
:104CF00001280CBF0420022000E00420496801F4D0
:104D00008811B1F5881F04D0927A002A18BF0420B8
:104D100000E00420D3F8443693F902305A1C05D041
:104D2000022B03D0012B14BF042002207047D0F8BF
:104D3000B038994201DD013306E007DACA1A013AB8
:104D400002EBD27203EB6203C0F8B038D0F8B008BF
:104D5000704791F91C309BB18B889B0702D0C888A3
:104D6000000A704772B1D0F8B0381BB96FF05A031F
:104D7000C0F8B03891F91C20D0F8B038D01A70477C
:104D8000184670471046704700207047C28A034695
:104D900002F4FF60C008D2040FD59B8813F02003F3
:104DA00003D0DD2806D802307047022804D9023823
:104DB00080B270470020704718467047004870471F
:104DC00030978300007E00F002007047002070479B
:104DD000D0F84836D87901288CBF022001207047CE
:104DE00079B1487870B18B78590703F0020044BF5D
:104DF00040F00400C0B2DA0704D540F00100C0B2B0
:104E0000704708467047000030B504680969D4F857
:104E100080004568013545608568AD18856031B111
:104E20008968486901304861886980188861A16B88
:104E300069B10748D4F88410C35C0648C35C01EB31
:104E4000C303596801315960996852189A6030BD9E
:104E5000F0DC8300A2CD830038B50B6B0C46016AF1
:104E6000054689698B4226D092F82630D90717D596
:104E70002046FFF71BFE8E3055F82030D3B1D3F813
:104E8000D820520515D4B5F8222602F47042A2F5B6
:104E90008050424242EB00020E3253F8223009E0C9
:104EA000138802F12601C3F3C0122CF02BD803465D
:104EB00000E000232363184638BD70B58E680C46A9
:104EC00016F00806D0F8145706D1495921B14068A8
:104ED000CC2209F045D9665170BD30B5147A0B4625
:104EE000022C10D1044600215518B5F8BC500231EF
:104EF000A575C5F30725E57502340A29F4D12030DC
:104F00001946032208E00B2C00F1160002D10231F1
:104F1000102201E092F90E20BDE8304005F02498FF
:104F20002DE9F74F15460D9A9A46B2F86630019072
:104F300013F4747F0C460C9E00F0AF8040F23713E0
:104F40003340002B00F0A980092D40F3A6803023C8
:104F50000B7001238B700023BAF5005FCB7001F159
:104F60000400A5F10A094E494FF0030204D104F0F0
:104F7000FBDF0723E37106E004F0F6DF01980D99EB
:104F800014F04ADBE07116F0040B11D0B9F1030FF5
:104F900040F3838004F10A004149032204F0E4DF76
:104FA0000423A5F10E0963734FF0010B0C2500E0FB
:104FB0000825B00714D5B9F1030F6EDD4FEA8B0653
:104FC000A0190A303649032204F0CEDFA6190223C5
:104FD0000BF1010B73731FFA8BFB0435A9F1040964
:104FE0000023B9F1010F84F808B0637255DD04F1B4
:104FF000080303EB8B0B1AF040060BF10208A9F132
:10500000020701D102350DE0032F46DD08F1020051
:1050100023490322012604F0A7DF063588F805603E
:10502000A9F106071AF0800F10D0032F35DD08EB29
:10503000860909F102001A49032204F095DF0136BE
:10504000022389F80530B6B20435043F1AF4005F34
:1050500010D0032F21DD08EB860909F10200104969
:10506000032204F081DF0136072389F80530B6B248
:105070000435043F0023012F8BF8026088F80130CB
:105080000BDD08EB8606022301980D99B21CFFF791
:1050900097FDAB1C0435637064192046BDE8FE8F94
:1050A000A16F03002DE9F84F032A83460C461646EC
:1050B00098460B9F40F3878044230B704FF0010903
:1050C0000023951E18F4806A81F80290CB700CD0F2
:1050D000032D78DD881D03223C4904F045DFB51F10
:1050E00084F80990CA46082600E0042618F4006FE8
:1050F00014D0032D67DD4FEA8A0804EB0800032271
:105100000630324904F030DF0AF1010A04EB0803EB
:1051100002225A721FFA8AFA0436043D0023012D36
:1051200084F804A063714EDD0A9A231D03EB8A0AFA
:1051300012F480730AF10209A5F1020801D10236C6
:105140000EE0B8F1030F3EDD09F102001F49032212
:1051500004F00ADF012389F805300636A5F10608B8
:105160000025B8F1030F8AF8023089F801502ADDD2
:1051700009EB830909F1020903221449484604F0A6
:10518000F3DE5846394614F047DAA0F10B025042DC
:1051900040EB0200B8F1050F89F8030013DD89F830
:1051A000045089F80550BB794BB1B7F866305B0500
:1051B00005D597F86A30012B08BF89F80430B31D74
:1051C00008366370A4192046BDE8F88FA56F030068
:1051D0002DE9F84FDDF82C809A46B8F86630834602
:1051E00018070C4615460A9F00F0B78040F23713A7
:1051F0003B40002B00F0B1800C9B93F93430002B26
:105200002CD1192A40F3A98008461A22544904F0E7
:10521000ABDE7B0701D5042313E0BD0701D50223D4
:105220000FE0D8F87430581C0AD01E3358F82330D9
:1052300033B11B7A012B04D0032B01D1052300E0ED
:105240000123E37200236374E3755846414604F179
:1052500018020223FFF7B4FC18257CE00D2A7CDD40
:10526000DD23084600F8023B3E49A2F10E06032268
:1052700004F07ADE4FF001090023E371032239497B
:1052800084F8059084F8069004F1080004F06CDEC0
:105290005846414614F0C0D917F00403E0720DD00F
:1052A000032E5ADD04F10E002E49032204F05CDEC9
:1052B0000423A5F112066374102501E099460C251C
:1052C000B90712D5032E48DD4FEA8907E0190E30E1
:1052D0002449032204F048DEE719022309F10109F9
:1052E0007B741FFA89F90435043E0023012E84F8EB
:1052F0000C90637331DD04F10C0303EB8909B31ED9
:105300001AF0020209F1020701D102350AE0032B6B
:1053100023DD0322B81C134904F026DE01227A7132
:105320000635B31F1AF0040F16460FD0032B14DDF9
:1053300007EB820808F102000A49032204F014DE98
:105340000136022388F80530B6B20435002389F807
:1053500002607B706570023564192046BDE8F88FE5
:10536000F3818300A96F0300F0B5002785B01546CF
:1053700004460A9A3E4603E0985D01363F18BFB2E4
:105380009642F9D1062201A804F0EEDDD4F81C35CE
:10539000F6B2632BADF80A70ADF80C6032D8D4F8D1
:1053A0001405591C0C22C4F81C1502FB030001A9AA
:1053B000ADF80E5004F0D8DDD4F81C35642B23D1A1
:1053C000D4F814050023827AE9B2891A0029B8BFFB
:1053D0004942082911DD94F822168A1A002AB8BF1A
:1053E0005242082A09DD01A90C2204F0BDDDD4F8DF
:1053F0001C35013BC4F81C3506E001330C30632B2F
:10540000E1D101E0002000E0012005B0F0BD00691D
:105410001FF0C09CF8B50368064693F845300C466B
:105420001546194F3BB10B68D0F85001F95C21F0DB
:1054300095DB002826D12B692168D3F87423795C89
:10544000507B084110F001001DD0216889B93268F5
:105450009B68D2F880204FF0FF30116A0131116251
:105460001A6A01321A62D5F854310133C5F8543141
:10547000F8BD01392160507B795C084110F00100D2
:10548000E3D1F8BD0020F8BDA2CD83002DE9F84F8F
:10549000DDF828B04FF000080C4615469A4606463F
:1054A0004FF040094746D6F8500103010FD500F0F0
:1054B0007F0055F82020D6F85431D318BB4245F868
:1054C000203012D9D6F85021CAF800200CE028F07C
:1054D000E9D9D6F8543154F82020D318BB4244F807
:1054E000203002D9CAF800001F46D6F85001010149
:1054F00002D528F0D7D904E028F0D4D94FF4FA73B4
:105500005843404504D9D6F850318046CBF8003096
:105510000836B9F10109C6D1BDE8F88F4FF0FF3365
:1055200010B5A0F82832044600F50A7002300021B8
:105530000C2204F0A1DD23689B6B23B94FF0FF33ED
:10554000A4F82C320BE00F23A4F82A32F023A4F89D
:105550002C324FF47063A4F82E324FF20003A4F8FB
:10556000303210BD2DE9F04F87B017460393D2F8C3
:105570001080614B5268DDF840A0134083460D4611
:105580000E69002B14BF4FF00C094FF00A09BAF155
:10559000000F04D09AF90E3099441FFA89F9AB8AAA
:1055A000C9EB06044B44AB824A462C6120460021DD
:1055B00004F062DD129B09F10E09A3F8009098F83F
:1055C0000630201DF3B13146062204F0CDDC04F193
:1055D0000A0008F1C801062204F0C6DCBAF1000F87
:1055E00004D17A68444B1340002B3CD0B11D0622F5
:1055F00004A804F0B9DC04F1100004A9062204F0A8
:10560000B3DC30E098F80C90B9F1000F18D008F135
:10561000C801062204F0A8DC3146062204A804F0E2
:10562000A3DCB11D062204F10A0004F09DDC04F1A4
:10563000100004A9062204F097DC4FF4807614E0F1
:105640003146062204F090DCB11D062204F10A0066
:1056500004F08ADC04F1100008F1C801062204F00D
:1056600083DC4E4601E04FF400767A68224B13400B
:10567000EBB1296A9DF844304805D8F8742303F04B
:1056800007030CD4127B012A05D141F48021296241
:1056900043F0200303E0520102F0600213432A6A40
:1056A00046F08006510648BF43F080032383BAF1D9
:1056B000000F0FD07A68104B134013B904F1180390
:1056C00001E004F11A030122009258464146524675
:1056D00026F06ADD039B46F0080613B146F48066A7
:1056E000B6B2BAF1000F01D046F4804626802046BB
:1056F00007B0BDE8F08F00BF4000010073B51C4645
:10570000D0F81437D35894F90E209E7C1D681836B3
:105710009E19AD1A75190123009322462B4626F0D7
:1057200043DD30462946224602B0BDE87040FFF70F
:10573000D4BB00002DE9F047D0F81437166986B0C5
:1057400051F8039015460C6906220746884602A8C0
:10575000314604F009DCB11D062204A804F004DC83
:10576000AB8A2E69D9F800200E3B0E36B61A9B186C
:10577000AB822E6199F8121030461831494404F07A
:10578000F3DB237B4BB1A37906F186000BB902A9A9
:1057900000E004A9062204F0E7DBB6F84C3003F081
:1057A000070ABAF1040F05D1384621463246FFF701
:1057B00035FA0DE0B7F82E2547F6E070511C23F4BA
:1057C000FE435202104023F0E003A7F82E151843C1
:1057D000A6F84C002B6A580501D5AA8C0BE032883C
:1057E000D1060BD4E98A01F007015C3108EB4101D5
:1057F000CA88501CC8801201A6F88C209A0509D5C9
:10580000AB8DA6F84230EB8DA6F84430338843F4D4
:10581000005333803B6893F8453063B1BAF1030F0E
:1058200009D82B4BD7F8500113F80A104FF0FF326C
:10583000434621F08BDA2A6AD9F80C3013432B62E5
:10584000A3792BB9D4F8A033FBB19B7BDB071CD524
:1058500098F8DF30CBB1D9F80820042A15D01C48BD
:1058600098F8D210825C06F1760351FA02F212F037
:10587000010F4FF001020092384641462A4602D0FD
:1058800018F004FE01E01AF069DBD4F84C3143B99A
:10589000D4F84823C4F85021D4F84C23C4F8542138
:1058A0000DE003F1290254F8321003F12A0244F802
:1058B000321004EBC302D2F84C11C2F85411013378
:1058C00003F03F03C4F84C3106B0BDE8F08700BFD9
:1058D000A2CD83002DE9F04F89B00692129D426857
:1058E0004FF0000A0490059107930392CC354FF0D6
:1058F000010BD146564645E0B5F5E86F34BF2F465B
:105900004FF4E8670398394608F068DC044668B944
:10591000049A514613680398D3F88030A2461A6A55
:1059200001321A62012208F02DDC2DE0D0F810803F
:10593000BBF1000F14D0A7F1B403A382E38A08F1EE
:10594000B40043F00703E382079B20610821009322
:10595000059A069B12F070DA08F1CC08CC3FA246FB
:1059600042464B4602E002F8013B013309EB0701D6
:105970008B42F8DB06B13460A5F5E865994626460A
:105980004FF0000B002DB7DC504609B0BDE8F08F9A
:105990002DE9F743DDF82C9005460E46406809F1E5
:1059A000CC0190461F4608F019DC044630B92B683C
:1059B000D3F880301A6A01321A6215E005690A9B31
:1059C00005F1B40009F118092061A4F814903146DA
:1059D000009342463B4612F02FDA0C9BCC351D60FB
:1059E000E38A43F00703E3822046BDE8FE832DE906
:1059F000F0437F2BA1B015460C469DF8A02040F344
:105A0000B8804E6ECEB1B1F86880A8F10C07002FB7
:105A100012DDA8F1090828F0030808F180084345C1
:105A200003DB0C364FF080090BE0002A40F0A18028
:105A300016469146174602E00026B14637464FF01B
:105A4000800800218022684604F016DB6D238DE873
:105A50000801E38D0622ADF80E30B4F8623021461D
:105A6000ADF81030638E02A8ADF84830238EADF843
:105A70004A3094F860308DF84C30638DADF84E307C
:105A8000A38DADF87C3094F861308DF8503004F07F
:105A90006BDA227A04F109010DF113008DF812205E
:105AA00004F062DAE388D90505D59DF8602042F05C
:105AB00001028DF860209A0405D59DF8602042F01F
:105AC00002028DF860209B0705D59DF8603043F0F9
:105AD00004038DF86030A26B0EA8102A28BF102294
